:020000040800F2
:1000000000000220593F0008F53E0008FB3E0008B2
:10001000013F0008073F00080D3F000800000000F6
:100020000000000000000000000000007126000831
:10003000133F000800000000C1280008292900081B
:10004000A93F0008A93F0008A93F0008A93F0008F0
:10005000A93F0008A93F0008A93F0008A93F0008E0
:10006000A93F0008A93F0008A93F0008A93F0008D0
:10007000A93F0008A93F0008A93F0008A93F0008C0
:10008000A93F0008A93F0008A93F0008A93F0008B0
:10009000A93F0008A93F0008A93F0008A93F0008A0
:1000A000A93F0008A93F0008A93F0008A93F000890
:1000B000A93F0008A93F0008213F0008A93F000808
:1000C000A93F0008A93F0008A93F0008A93F000870
:1000D000A93F0008A93F0008A93F0008A93F000860
:1000E000A93F0008A93F0008A93F0008A93F000850
:1000F000A93F0008A93F0008A93F0008A93F000840
:10010000A93F0008A93F0008A93F0008A93F00082F
:10011000A93F0008A93F0008A93F0008A93F00081F
:10012000A93F0008A93F0008A93F0008A93F00080F
:10013000A93F0008A93F0008A93F0008A93F0008FF
:10014000A93F0008A93F0008A93F0008A93F0008EF
:10015000A93F0008A93F0008A93F0008A93F0008DF
:10016000A93F0008A93F0008A93F0008A93F0008CF
:10017000A93F0008A93F0008A93F000800000000AF
:08018000A93F0008A93F000897
:100190000348044B834202D0034B03B11847704716
:1001A0006000002060000020000000000548064BB1
:1001B0001B1AD90F01EBA301491002D0034B03B165
:1001C0001847704760000020600000200000000019
:1001D00010B5064C237843B9FFF7DAFF044B13B18F
:1001E0000448AFF300800123237010BD600000209D
:1001F00000000000AC3F000808B5044B1BB10449E7
:100200000448AFF30080BDE80840CFE700000000DD
:1002100064000020AC3F000853B94AB9002908BF68
:1002200000281CBF4FF0FF314FF0FF3000F06AB9DB
:10023000ADF1080C6DE904CE00F006F8DDF804E03D
:10024000DDE9022304B070472DE9F047089D0E4612
:1002500004460F46002B4AD194468C45B2FA82F2EE
:1002600060D942B1C2F12003974020FA03F30CFA9F
:1002700002FC1F4394404FEA1C4E1FFA8CF6B7FB5A
:10028000FEF1230C0EFB117743EA074301FB06F056
:1002900098420AD91CEB030301F1FF3780F0158166
:1002A000984240F21281023963441B1AA4B2B3FB94
:1002B000FEF00EFB103344EA034400FB06F6A642B0
:1002C0000AD91CEB040400F1FF3380F00081A64240
:1002D00040F2FD806444023840EA0140A41B002142
:1002E0001DB1D4400023C5E90043BDE8F0878B422F
:1002F00005D90DB1C5E9000100210846F5E7B3FABB
:1003000083F1002946D1B34202D3824200F2F58044
:10031000841A66EB030201201746002DE5D0C5E9DB
:100320000047E2E7002A40F09380A1EB0C034FEA7C
:100330001C471FFA8CFE0121B3FBF7F607FB1630B2
:10034000230C43EA00430EFB06F0984208D91CEB4D
:10035000030306F1FF3802D2984200F2D0804646ED
:100360001B1AA4B2B3FBF7F007FB103344EA0344B3
:100370000EFB00FEA64508D91CEB040400F1FF3378
:1003800002D2A64500F2B6801846A4EB0E0440EA5D
:100390000640A5E7C1F120078B4022FA07FC4CEA92
:1003A000030C06FA01FE20FA07F426FA07F344EAE2
:1003B0000E0400FA01F84FEA1C404FEA1449B3FB5F
:1003C000F0FE1FFA8CF600FB1E3349EA03430EFBD6
:1003D00006F9994502FA01F20BD91CEB03030EF161
:1003E000FF3A80F08580994540F28280AEF1020E9E
:1003F0006344A3EB0909A4B2B9FBF0F300FB139922
:1004000044EA094403FB06F6A64208D91CEB04049F
:1004100003F1FF3068D2A64266D9023B644443EA46
:100420000E40A41BA0FB02E6B4427346B14652D371
:100430004FD05DB1B8EB030264EB090404FA07F78F
:1004400022FA01F31F43CC40C5E9007400214CE7B8
:10045000C2F1200120FA01F30CFA02FC26FA01F1A4
:10046000964033434FEA1C471FFA8CFEB1FBF7F06E
:1004700007FB1016190C41EA064100FB0EF68E42EE
:1004800004FA02F408D91CEB010100F1FF382DD267
:100490008E422BD902386144891B9BB2B1FBF7F61F
:1004A00007FB161143EA014306FB0EF1994208D9F6
:1004B0001CEB030306F1FF3814D2994212D9023E15
:1004C00063445B1A46EA004136E73946EDE61846D2
:1004D00002E7F045ADD2BEEB020366EB0C06013835
:1004E000B146A6E74646ECE7034698E74046D3E721
:1004F000D6467EE76444023847E708460DE7023EE9
:1005000063442DE7704700BF70B50F4B0F4DAB42F2
:10051000A3EB050607D0B610002455F8043B0134C0
:100520009847A642F9D803F041FD094D094B5E1BDF
:10053000AB424FEAA60606D0002455F8043B01342E
:100540009847A642F9D870BD64400008644000088E
:100550006440000868400008830730B547D0541E47
:10056000002A3ED0CAB2034601E0013C39D303F869
:10057000012B9D07F9D1032C2CD9CDB205EB052514
:100580000F2C05EB054535D9A4F1100222F00F0C14
:1005900003F1100EE6444FEA121C1A46C2E9005558
:1005A000C2E9025510327245F8D10CF1010214F083
:1005B0000C0F03EB021204F00F0C13D0ACF1040388
:1005C00023F003030433134442F8045B9342FBD14A
:1005D0000CF003042CB1C9B21C4403F8011BA34264
:1005E000FBD130BD64461346002CF4D1F9E7034635
:1005F0001446C0E71A46A446E0E700BF002950D0E1
:1006000038B551F8043C0C1F002BB8BFE418054660
:1006100000F0BCF8274A13682BB1A3420CD921681B
:10062000601883422CD0636028461460BDE83840CF
:1006300000F0AEB8A3420FD81A465B68002BF9D180
:1006400011685018844217D02CD363605460284638
:10065000BDE8384000F09CB811685018A04214D092
:1006600020D8216860188342EFD118685B6808447D
:10067000C4E900035460EAE723680B441360E6E72B
:1006800018685B6808442060CDE720680144501872
:1006900083421160DBD1D3E900040144C2E90014B4
:1006A000D5E770470C232B602846BDE8384000F0A2
:1006B0006FB800BFBC010020334B1B68834261D080
:1006C000C26970B50546002A53D0D16891B10026A1
:1006D0008C5944B1214624682846FFF78FFF002C2F
:1006E000F8D1EB69D9680436802EF1D12846FFF79E
:1006F00085FFEA69116819B12846FFF77FFFEA69AB
:100700009468002C3AD0214624682846FFF776FFEB
:10071000002CF8D1696911B12846FFF76FFFEA692B
:100720001AB111462846FFF769FF296B11B1284617
:10073000FFF764FF696B11B12846FFF75FFFA96BF4
:1007400011B12846FFF75AFFA96C11B12846FFF7EF
:1007500055FF696C11B12846FFF750FFE96A11B1E6
:100760002846FFF74BFF2B6A3BB12846BDE8704097
:10077000184741690029CFD1D7E770BD69690029C1
:10078000CAD1CEE7704700BF00000020704700BF0D
:10079000704700BF80B500AF0E4B1B680D4A43F495
:1007A000007313600B4B1B680A4A43F480631360A9
:1007B000084B1B68074A43F480731360032000F062
:1007C0003AFB0F2003F01AFB03F0ECFA0023184663
:1007D00080BD00BF003C024080B400AF064B1B78D8
:1007E0001A46064B1B681344044A136000BFBD46FB
:1007F0005DF8047B704700BF54000020C00100205A
:1008000080B400AF034B1B681846BD465DF8047BFF
:10081000704700BFC001002080B584B000AF786091
:100820000023FB737B68002B01D1012333E07B683D
:100830001B6C002B09D1786803F07CF87B680022E0
:100840005A647B68002283F83C207B681B6C03F0B1
:100850001003002B18D17B681B6C23F4885323F002
:10086000020343F002027B681A64786800F03AF9E8
:100870007B6800225A647B681B6C23F0030343F0FF
:1008800001027B681A6401E00123FB737B6800228C
:1008900083F83C20FB7B18461037BD4680BD000026
:1008A00080B485B000AF786039600023BB607B689E
:1008B00093F83C30012B01D1022305E17B68012232
:1008C00083F83C203B681B68092B25D97B681B6893
:1008D000D9683B681B689BB21A4613465B001344F9
:1008E0001E3B072202FA03F3DA437B681B680A40C7
:1008F000DA607B681B68D9683B689A683B681B684C
:100900009BB2184603465B0003441E3B9A407B683B
:100910001B680A43DA6022E07B681B6819693B6840
:100920001B689BB21A4613465B001344072202FA67
:1009300003F3DA437B681B680A401A617B681B6813
:1009400019693B689A683B681B689BB21846034666
:100950005B0003449A407B681B680A431A613B684A
:100960005B68062B24D87B681B68596B3B685A6808
:1009700013469B001344053B1F2202FA03F3DA439C
:100980007B681B680A405A637B681B68596B3B682D
:100990001B689BB218463B685A6813469B00134479
:1009A000053B00FA03F27B681B680A435A634CE07C
:1009B0003B685B680C2B24D87B681B68196B3B6811
:1009C0005A6813469B001344233B1F2202FA03F389
:1009D000DA437B681B680A401A637B681B68196BE3
:1009E0003B681B689BB218463B685A6813469B00DD
:1009F0001344233B00FA03F27B681B680A431A6323
:100A000023E07B681B68D96A3B685A6813469B00E1
:100A10001344413B1F2202FA03F3DA437B681B684D
:100A20000A40DA627B681B68D96A3B681B689BB224
:100A300018463B685A6813469B001344413B00FA32
:100A400003F27B681B680A43DA62224BFB607B6817
:100A50001B68214A934209D13B681B68122B05D1C0
:100A6000FB685B6843F48002FB685A607B681B6824
:100A7000194A934223D13B681B68102B03D03B6873
:100A80001B68112B1BD1FB685B6843F40002FB68F9
:100A90005A603B681B68102B11D1104B1B68104A21
:100AA000A2FB03239A0C13469B0013445B00BB601C
:100AB00002E0BB68013BBB60BB68002BF9D17B68DF
:100AC000002283F83C20002318461437BD465DF809
:100AD000047B704700230140002001405C0000209F
:100AE00083DE1B4380B485B000AF7860794BFB6038
:100AF000FB685B6823F44032FB685A60FB685A6805
:100B00007B685B681A43FB685A607B681B685A689D
:100B10007B681B6822F480725A607B681B68596886
:100B20007B681B691A027B681B680A435A607B68F2
:100B30001B685A687B681B6822F040725A607B68A9
:100B40001B6859687B689A687B681B680A435A600F
:100B50007B681B689A687B681B6822F400629A6055
:100B60007B681B6899687B68DA687B681B680A4346
:100B70009A607B689B6A584A934222D07B681B68C4
:100B80009A687B681B6822F070629A607B681B68B9
:100B900099687B689A6A7B681B680A439A607B68DD
:100BA0001B689A687B681B6822F040529A607B68D9
:100BB0001B6899687B68DA6A7B681B680A439A60DD
:100BC0000FE07B681B689A687B681B6822F0706284
:100BD0009A607B681B689A687B681B6822F04052A9
:100BE0009A607B681B689A687B681B6822F0020227
:100BF0009A607B681B6899687B681B7E5A007B68DB
:100C00001B680A439A607B6893F82030002B1BD046
:100C10007B681B685A687B681B6842F400625A60F4
:100C20007B681B685A687B681B6822F460425A60C4
:100C30007B681B6859687B685B6A013B5A037B6869
:100C40001B680A435A6007E07B681B685A687B6828
:100C50001B6822F400625A607B681B68DA6A7B6852
:100C60001B6822F47002DA627B681B68D96A7B68B1
:100C7000DB69013B1A057B681B680A43DA627B6803
:100C80001B689A687B681B6822F400729A607B6814
:100C90001B6899687B6893F830305A027B681B6840
:100CA0000A439A607B681B689A687B681B6822F419
:100CB00080629A607B681B6899687B685B699A02AE
:100CC0007B681B680A439A6000BF1437BD465DF815
:100CD000047B7047002301400100000F80B485B001
:100CE00000AF78607B6803F00703FB600C4BDB68A8
:100CF000BB60BA684FF6FF031340BB60FB681A0283
:100D0000BB68134343F0BF6343F40033BB60044A42
:100D1000BB68D36000BF1437BD465DF8047B7047E5
:100D200000ED00E080B400AF044BDB681B0A03F069
:100D300007031846BD465DF8047B704700ED00E0F0
:100D400080B483B000AF0346FB7197F90730002BE6
:100D50000BDBFB7903F01F02074997F907305B09AA
:100D6000012000FA02F241F8232000BF0C37BD46F3
:100D70005DF8047B704700BF00E100E080B483B001
:100D800000AF03463960FB7197F90730002B0ADB8F
:100D90003B68DAB20C4997F907301201D2B20B4422
:100DA00083F800230AE03B68DAB20849FB7903F0D4
:100DB0000F03043B1201D2B20B441A7600BF0C376A
:100DC000BD465DF8047B704700E100E000ED00E007
:100DD00080B489B000AFF860B9607A60FB6803F056
:100DE0000703FB61FB69C3F10703042B28BF04233E
:100DF000BB61FB690433062B02D9FB69033B00E0AE
:100E000000237B614FF0FF32BB6902FA03F3DA4340
:100E1000BB681A407B699A404FF0FF317B6901FA49
:100E200003F3D9437B680B40134318462437BD4670
:100E30005DF8047B704780B582B000AF7860786859
:100E4000FFF74CFF00BF0837BD4680BD80B586B0B8
:100E500000AF0346B9607A60FB7300237B61FFF744
:100E600061FF78617A68B9687869FFF7B1FF024677
:100E700097F90F3011461846FFF780FF00BF18376B
:100E8000BD4680BD80B582B000AF0346FB7197F9C7
:100E900007301846FFF754FF00BF0837BD4680BD36
:100EA00080B489B000AF7860396000237B61002393
:100EB0003B610023BB610023FB616BE10122FB6905
:100EC00002FA03F37B613B681B687A6913403B615C
:100ED0003A697B699A4240F05A813B685B6803F04B
:100EE0000303012B05D03B685B6803F00303022B6F
:100EF00030D17B689B68BB61FB695B00032202FA0F
:100F000003F3DB43BA691340BB613B68DA68FB69F2
:100F10005B0002FA03F3BA691343BB617B68BA69E9
:100F20009A607B685B68BB610122FB6902FA03F38C
:100F3000DB43BA691340BB613B685B681B0903F084
:100F40000102FB6902FA03F3BA691343BB617B68D0
:100F5000BA695A603B685B6803F00303032B17D040
:100F60007B68DB68BB61FB695B00032202FA03F369
:100F7000DB43BA691340BB613B689A68FB695B005D
:100F800002FA03F3BA691343BB617B68BA69DA609A
:100F90003B685B6803F00303022B23D1FB69DA088B
:100FA0007B68083253F82230BB61FB6903F007030A
:100FB0009B000F2202FA03F3DB43BA691340BB61C3
:100FC0003B681A69FB6903F007039B0002FA03F30D
:100FD000BA691343BB61FB69DA087B680832B969F7
:100FE00043F822107B681B68BB61FB695B0003222E
:100FF00002FA03F3DB43BA691340BB613B685B68E9
:1010000003F00302FB695B0002FA03F3BA691343BE
:10101000BB617B68BA691A603B685B6803F4403364
:10102000002B00F0B4800023FB60604B5B6C5F4AD8
:1010300043F4804353645D4B5B6C03F48043FB607B
:10104000FB685B4AFB699B08023352F82330BB61A3
:10105000FB6903F003039B000F2202FA03F3DB4357
:10106000BA691340BB617B68524A93422BD07B68BC
:10107000514A934225D07B68504A93421FD07B68E7
:101080004F4A934219D07B684E4A934213D07B68F3
:101090004D4A93420DD07B684C4A934207D07B68FF
:1010A0004B4A934201D107230EE008230CE00623AC
:1010B0000AE0052308E0042306E0032304E00223FA
:1010C00002E0012300E00023FA6902F0030292002B
:1010D0009340BA691343BB613549FB699B080233EE
:1010E000BA6941F823203B4B9B68BB613B69DB43FA
:1010F000BA691340BB613B685B6803F48013002B43
:1011000003D0BA693B691343BB61324ABB69936040
:10111000304BDB68BB613B69DB43BA691340BB61A1
:101120003B685B6803F40013002B03D0BA693B698A
:101130001343BB61274ABB69D360264B5B68BB6125
:101140003B69DB43BA691340BB613B685B6803F4EE
:101150000033002B03D0BA693B691343BB611D4ABE
:10116000BB6953601B4B1B68BB613B69DB43BA69BE
:101170001340BB613B685B6803F48033002B03D0F2
:10118000BA693B691343BB61124ABB691360FB69CF
:101190000133FB61FB690F2B7FF690AE00BF00BFF0
:1011A0002437BD465DF8047B704700BF003802401D
:1011B00000380140000002400004024000080240E4
:1011C000000C0240001002400014024000180240CF
:1011D000001C0240003C014080B483B000AF786046
:1011E0000B467B8013467B707B78002B03D07A887C
:1011F0007B689A6103E07B881A047B689A6100BF70
:101200000C37BD465DF8047B7047000080B584B0A4
:1012100000AF78607B68002B01D101232BE17B6854
:1012200093F83D30DBB2002B06D17B68002283F8B7
:101230003C20786802F0DAFC7B68242283F83D20A9
:101240007B681B681A687B681B6822F001021A60C1
:101250007B681B681A687B681B6842F400421A604E
:101260007B681B681A687B681B6822F400421A605E
:1012700000F080FDF8607B685B68814A934207D884
:10128000FB68804A934294BF01230023DBB206E04F
:10129000FB687D4A934294BF01230023DBB2002BFD
:1012A00001D00123E7E0FB68784AA2FB03239B0CF3
:1012B000BB607B681B685B6823F03F017B681B6831
:1012C000BA680A435A607B681B681B6A23F03F01B7
:1012D0007B685B686A4A934202D8BB68013309E0C5
:1012E000BB684FF4967202FB03F3694AA2FB032327
:1012F0009B0901337A6812680B4313627B681B6891
:10130000DB6923F44F4222F0FF027B685B685C4993
:101310008B4219D8FB68591E7B685B685B00B1FB88
:10132000F3F3591C40F6FC730B40002B0AD0FB680A
:10133000591E7B685B685B00B1FBF3F30133C3F3B9
:101340000B0351E004234FE07B689B68002B11D115
:10135000FB68581E7B6859680B465B000B44B0FB6A
:10136000F3F30133C3F30B03002B0CBF0123002362
:10137000DBB212E0FB68581E7B6859680B469B0085
:101380000B4499000B44B0FBF3F30133C3F30B039D
:10139000002B0CBF01230023DBB2002B01D0012363
:1013A00022E07B689B68002B0ED1FB68581E7B688F
:1013B00059680B465B000B44B0FBF3F30133C3F3F6
:1013C0000B0343F400430FE0FB68581E7B68596829
:1013D0000B469B000B4499000B44B0FBF3F3013325
:1013E000C3F30B0343F44043796809681343CB61AB
:1013F0007B681B681B6823F0C0017B68DA697B6827
:101400001B6A1A437B681B680A431A607B681B6867
:101410009B6823F4034323F0FF037A6811697A6819
:10142000D26811437A6812680B4393607B681B682B
:10143000DB6823F0FF017B685A697B689B691A436C
:101440007B681B680A43DA607B681B681A687B68E4
:101450001B6842F001021A607B6800221A647B68F4
:10146000202283F83D207B6800221A637B680022DB
:1014700083F83E20002318461037BD4680BD00BFCC
:10148000A08601007F841E00FF083D0083DE1B4311
:10149000D34D621080B586B000AF78607B68002BBA
:1014A00001D1012367E27B681B6803F00103002B75
:1014B00075D0884B9B6803F00C03042B0CD0854B34
:1014C0009B6803F00C03082B12D1824B5B6803F47A
:1014D0008003B3F5800F0BD17E4B1B6803F4003300
:1014E000002B5BD07B685B68002B57D1012342E265
:1014F0007B685B68B3F5803F06D1764B1B68754A05
:1015000043F4803313601DE07B685B68B3F5A02F64
:101510000CD1704B1B686F4A43F4802313606D4BF2
:101520001B686C4A43F4803313600BE0694B1B6803
:10153000684A23F480331360664B1B68654A23F4C2
:10154000802313607B685B68002B13D0FFF758F98A
:10155000386108E0FFF754F902463B69D31A642B5F
:1015600001D9032307E25B4B1B6803F40033002B14
:10157000F0D014E0FFF744F9386108E0FFF740F9D4
:1015800002463B69D31A642B01D90323F3E1514B83
:101590001B6803F40033002BF0D100E000BF7B6830
:1015A0001B6803F00203002B63D04A4B9B6803F0D7
:1015B0000C03002B0BD0474B9B6803F00C03082B4C
:1015C0001CD1444B5B6803F48003002B16D1414BC4
:1015D0001B6803F00203002B05D07B68DB68012B3E
:1015E00001D00123C7E13B4B1B6823F0F8027B6865
:1015F0001B69DB00374913430B603AE07B68DB680B
:10160000002B20D0344B01221A60FFF7F9F8386123
:1016100008E0FFF7F5F802463B69D31A022B01D91F
:101620000323A8E12B4B1B6803F00203002BF0D02F
:10163000284B1B6823F0F8027B681B69DB002549F7
:1016400013430B6015E0244B00221A60FFF7D8F813
:10165000386108E0FFF7D4F802463B69D31A022B41
:1016600001D9032387E11B4B1B6803F00203002B06
:10167000F0D17B681B6803F00803002B36D07B6831
:101680005B69002B16D0154B01221A60FFF7B8F8E2
:10169000386108E0FFF7B4F802463B69D31A022B21
:1016A00001D9032367E10B4B5B6F03F00203002BAF
:1016B000F0D01BE0094B00221A60FFF7A1F8386157
:1016C0000EE0FFF79DF802463B69D31A022B07D9BB
:1016D000032350E10038024000004742800E474299
:1016E000884B5B6F03F00203002BEAD17B681B6819
:1016F00003F00403002B00F097800023FB75814B5F
:101700001B6C03F08053002B0FD10023BB607D4B7B
:101710001B6C7C4A43F0805313647A4B1B6C03F0C0
:101720008053BB60BB680123FB75774B1B6803F4D8
:101730008073002B18D1744B1B68734A43F4807379
:101740001360FFF75DF8386108E0FFF759F80246CB
:101750003B69D31A022B01D903230CE16A4B1B68A6
:1017600003F48073002BF0D07B689B68012B06D1BB
:10177000644B1B6F634A43F0010313671CE07B68F3
:101780009B68052B0CD15F4B1B6F5E4A43F0040333
:1017900013675C4B1B6F5B4A43F0010313670BE05D
:1017A000584B1B6F574A23F001031367554B1B6FB0
:1017B000544A23F0040313677B689B68002B15D001
:1017C000FFF71EF838610AE0FFF71AF802463B6996
:1017D000D31A41F28832934201D90323CBE0494B1B
:1017E0001B6F03F00203002BEED014E0FFF708F8A4
:1017F00038610AE0FFF704F802463B69D31A41F268
:101800008832934201D90323B5E03E4B1B6F03F0AE
:101810000203002BEED1FB7D012B05D1394B1B6C54
:10182000384A23F0805313647B689B69002B00F0D7
:10183000A180344B9B6803F00C03082B5CD07B68C1
:101840009B69022B41D1314B00221A60FEF7D8FF71
:10185000386108E0FEF7D4FF02463B69D31A022B39
:1018600001D9032387E0274B1B6803F00073002B8B
:10187000F0D17B68DA697B681B6A1A437B685B6A14
:101880009B011A437B689B6A5B08013B1B041A435C
:101890007B68DB6A1B061B4913434B601B4B012211
:1018A0001A60FEF7ADFF386108E0FEF7A9FF0246B7
:1018B0003B69D31A022B01D903235CE0114B1B684F
:1018C00003F00073002BF0D054E0104B00221A609C
:1018D000FEF796FF386108E0FEF792FF02463B698B
:1018E000D31A022B01D9032345E0064B1B6803F0F2
:1018F0000073002BF0D13DE07B689B69012B07D181
:10190000012338E000380240007000406000474288
:101910001B4B5B68FB607B689B69012B28D0FB68D5
:1019200003F480027B68DB699A4221D1FB6803F0F3
:101930003F027B681B6A9A421AD1FA6847F6C07365
:1019400013407A68526A9201934211D1FB6803F402
:1019500040327B689B6A5B08013B1B049A4207D1BB
:10196000FB6803F070627B68DB6A1B069A4201D059
:10197000012300E0002318461837BD4680BD00BF94
:101980000038024080B584B000AF786039607B6871
:10199000002B01D10123CCE0684B1B6803F0070347
:1019A0003A689A420CD9654B3A68D2B21A70634BC6
:1019B0001B6803F007033A689A4201D00123B8E09C
:1019C0007B681B6803F00203002B20D07B681B6838
:1019D00003F00403002B05D0594B9B68584A43F48D
:1019E000E05393607B681B6803F00803002B05D06D
:1019F000534B9B68524A43F460439360504B9B683F
:101A000023F0F0027B689B684D4913438B607B6831
:101A10001B6803F00103002B44D07B685B68012B3B
:101A200007D1474B1B6803F40033002B19D1012366
:101A30007FE07B685B68022B03D07B685B68032BCD
:101A400007D13F4B1B6803F00073002B09D1012322
:101A50006FE03B4B1B6803F00203002B01D1012315
:101A600067E0374B9B6823F003027B685B6834496F
:101A700013438B60FEF7C4FEF8600AE0FEF7C0FE79
:101A80000246FB68D31A41F28832934201D90323FC
:101A90004FE02B4B9B6803F00C027B685B689B005C
:101AA0009A42EBD1254B1B6803F007033A689A4230
:101AB0000CD2224B3A68D2B21A70204B1B6803F04A
:101AC00007033A689A4201D0012332E07B681B6821
:101AD00003F00403002B08D0194B9B6823F4E05259
:101AE0007B68DB68164913438B607B681B6803F0D7
:101AF0000803002B09D0124B9B6823F460427B68DB
:101B00001B69DB000E4913438B6000F021F802468D
:101B10000B4B9B681B0903F00F030A49CB5C22FAAD
:101B200003F3094A1360094B1B68184602F066F973
:101B3000002318461037BD4680BD00BF003C024060
:101B400000380240444000085C00002050000020A3
:101B50002DE9B04F94B000AF00237B640023FB64F9
:101B600000233B640023BB64794B9B6803F00C03A8
:101B7000082B0DD0082B00F2E180002B02D0042BA3
:101B800003D0DBE0734BBB64DBE0734BBB64D8E09A
:101B90006F4B5B6803F03F037B646D4B5B6803F442
:101BA0008003002B63D06A4B5B689B090022BB63F8
:101BB000FA63BB6BC3F308033B6300237B63D7E982
:101BC0000C4522462B464FF000004FF00001590112
:101BD00041EAD261500102460B462146511A396151
:101BE000294663EB01037B614FF000024FF00003D5
:101BF000D7E904AB59468B01514643EA91635146FC
:101C00008A015146B2EB0108594663EB01094FF0D6
:101C100000024FF000034FEAC90343EA58734FEA4A
:101C2000C80290469946234618EB0303BB602B4637
:101C300049EB0303FB604FF000024FF00003D7E9CC
:101C4000024529464B02214643EAD15321464A0226
:101C5000104619467B6C0022BB62FA62D7E90A2360
:101C6000FEF7DAFA02460B461346FB6458E0384B9F
:101C70005B689B09002218461146C0F308033B62CB
:101C800000237B62D7E9088942464B464FF00000AB
:101C90004FF00001590141EAD261500102460B4662
:101CA0004146B2EB010A494663EB010B4FF00002DB
:101CB0004FF000034FEA8B1343EA9A634FEA8A120C
:101CC000B2EB0A0463EB0B054FF000024FF0000388
:101CD000EB0043EA5473E20014461D464346E31802
:101CE0003B604B4645EB03037B604FF000024FF037
:101CF0000003D7E9004529468B02214643EA915368
:101D000021468A02104619467B6C0022BB61FA61AB
:101D1000D7E90623FEF780FA02460B461346FB641A
:101D20000B4B5B681B0C03F0030301335B003B644C
:101D3000FA6C3B6CB2FBF3F3BB6402E0054BBB6493
:101D400000BFBB6C18465037BD46BDE8B08F00BF22
:101D5000003802400024F40000127A0080B400AF82
:101D6000034B1B681846BD465DF8047B704700BFF7
:101D70005C00002080B500AFFFF7F0FF0246054B86
:101D80009B689B0A03F007030349CB5C22FA03F329
:101D9000184680BD003802405440000880B483B02B
:101DA00000AF786039607B680F221A60124B9B6825
:101DB00003F003027B685A600F4B9B6803F0F0024C
:101DC0007B689A600C4B9B6803F4E0527B68DA6096
:101DD000094B9B68DB0803F4E0527B681A61074BF0
:101DE0001B6803F007023B681A6000BF0C37BD4652
:101DF0005DF8047B704700BF00380240003C0240A1
:101E000080B582B000AF78607B68002B01D10123E0
:101E100041E07B6893F83D30DBB2002B06D17B6854
:101E2000002283F83C20786800F039F87B680222B1
:101E300083F83D207B681A687B6804331946104696
:101E400000F0C0F97B68012283F846207B680122FC
:101E500083F83E207B68012283F83F207B680122C3
:101E600083F840207B68012283F841207B680122AF
:101E700083F842207B68012283F843207B6801229B
:101E800083F844207B68012283F845207B68012287
:101E900083F83D20002318460837BD4680BD80B436
:101EA00083B000AF786000BF0C37BD465DF8047B9F
:101EB0007047000080B485B000AF78607B6893F80D
:101EC0003D30DBB2012B01D001234EE07B680222C2
:101ED00083F83D207B681B68DA687B681B6842F0EA
:101EE0000102DA607B681B68234A934222D07B6838
:101EF0001B68B3F1804F1DD07B681B681F4A93425B
:101F000018D07B681B681E4A934213D07B681B68FD
:101F10001C4A93420ED07B681B681B4A934209D02F
:101F20007B681B68194A934204D07B681B68184A77
:101F3000934211D17B681B689B6803F00703FB6029
:101F4000FB68062B10D07B681B681A687B681B68CF
:101F500042F001021A6007E07B681B681A687B6820
:101F60001B6842F001021A60002318461437BD4670
:101F70005DF8047B704700BF000001400004004092
:101F800000080040000C00400004014000400140F7
:101F90000018004080B584B000AF78607B681B6893
:101FA000DB68FB607B681B681B69BB60BB6803F078
:101FB0000203002B20D0FB6803F00203002B1BD090
:101FC0007B681B686FF002021A617B6801221A7736
:101FD0007B681B689B6903F00303002B03D07868C0
:101FE00000F0D2F805E0786800F0C4F8786800F0F6
:101FF000D5F87B6800221A77BB6803F00403002B36
:1020000020D0FB6803F00403002B1BD07B681B6807
:102010006FF004021A617B6802221A777B681B68E2
:102020009B6903F44073002B03D0786800F0ACF890
:1020300005E0786800F09EF8786800F0AFF87B68FB
:1020400000221A77BB6803F00803002B20D0FB683E
:1020500003F00803002B1BD07B681B686FF008029D
:102060001A617B6804221A777B681B68DB6903F0BE
:102070000303002B03D0786800F086F805E0786849
:1020800000F078F8786800F089F87B6800221A7709
:10209000BB6803F01003002B20D0FB6803F0100393
:1020A000002B1BD07B681B686FF010021A617B68E5
:1020B00008221A777B681B68DB6903F44073002BE6
:1020C00003D0786800F060F805E0786800F052F816
:1020D000786800F063F87B6800221A77BB6803F029
:1020E0000103002B0CD0FB6803F00103002B07D089
:1020F0007B681B686FF001021A61786801F03AFE94
:10210000BB6803F08003002B0CD0FB6803F0800356
:10211000002B07D07B681B686FF080021A6178681B
:1021200000F006F9BB6803F04003002B0CD0FB68FD
:1021300003F04003002B07D07B681B686FF0400260
:102140001A61786800F034F8BB6803F02003002BB4
:102150000CD0FB6803F02003002B07D07B681B68C2
:102160006FF020021A61786800F0D8F800BF1037CD
:10217000BD4680BD80B483B000AF786000BF0C372F
:10218000BD465DF8047B704780B483B000AF7860D3
:1021900000BF0C37BD465DF8047B704780B483B048
:1021A00000AF786000BF0C37BD465DF8047B704718
:1021B00080B483B000AF786000BF0C37BD465DF8D7
:1021C000047B704780B485B000AF786039607B686D
:1021D0001B68FB607B68464A934213D07B68B3F16F
:1021E000804F0FD07B68434A93420BD07B68424AB2
:1021F000934207D07B68414A934203D07B68404AB0
:10220000934208D1FB6823F07003FB603B685B6876
:10221000FA681343FB607B68354A93422BD07B6896
:10222000B3F1804F27D07B68324A934223D07B683A
:10223000314A93421FD07B68304A93421BD07B685F
:102240002F4A934217D07B682E4A934213D07B6863
:102250002D4A93420FD07B682C4A93420BD07B6867
:102260002B4A934207D07B682A4A934203D07B686B
:10227000294A934208D1FB6823F44073FB603B6812
:10228000DB68FA681343FB60FB6823F080023B685D
:102290005B691343FB607B68FA681A603B689A6865
:1022A0007B68DA623B681A687B689A627B68104ACE
:1022B000934203D07B68124A934203D13B681A6968
:1022C0007B681A637B6801225A617B681B6903F093
:1022D0000103012B05D17B681B6923F001027B6898
:1022E0001A6100BF1437BD465DF8047B704700BF1C
:1022F000000001400004004000080040000C0040C5
:1023000000040140004001400044014000480140F9
:1023100000180040001C00400020004080B483B042
:1023200000AF786000BF0C37BD465DF8047B704796
:1023300080B483B000AF786000BF0C37BD465DF855
:10234000047B704780B485B000AF0346FB80002358
:10235000FB60B7F90630842B05D0B7F90620FB687F
:1023600013440333FB60FB6818461437BD465DF821
:10237000047B704780B500AF00F01CFF00231846B7
:1023800080BDF0B589B004AF786039607B685B6967
:10239000002B20D07B689B69002B1CD07B685C687D
:1023A0007B681D687B681E697B68B3F90830184636
:1023B000FFF7C8FF01467B685B697A689269029201
:1023C000019300913B6832462946204600F0E6FC26
:1023D0000346FB601CE07B685C687B681D687B686B
:1023E0001B699EB27B68B3F908301846FFF7AAFF55
:1023F000024607F10C03019300923B6832462946DE
:10240000204600F02AFD0346012B01D0002300E006
:10241000FB6818461437BD46F0BD80B584B000AFE8
:1024200078607B68FB60FB68002B01D0FB6800E0F4
:102430000123184600F08AFE002318461037BD46D7
:1024400080BD80B483B000AF78607B6803F1080280
:102450007B685A607B684FF0FF329A607B6803F1BB
:1024600008027B68DA607B6803F108027B681A6106
:102470007B6800221A6000BF0C37BD465DF8047B04
:10248000704780B483B000AF78607B6800221A6127
:1024900000BF0C37BD465DF8047B704780B485B043
:1024A00000AF786039607B685B68FB603B68FA6806
:1024B0005A60FB689A683B689A60FB689B683A6858
:1024C0005A60FB683A689A603B687A681A617B6870
:1024D0001B685A1C7B681A6000BF1437BD465DF844
:1024E000047B704780B485B000AF786039603B688A
:1024F0001B68BB60BB68B3F1FF3F03D17B681B69FE
:10250000FB600CE07B680833FB6002E0FB685B6803
:10251000FB60FB685B681B68BA689A42F6D2FB688E
:102520005A683B685A603B685B683A689A603B68E7
:10253000FA689A60FB683A685A603B687A681A6180
:102540007B681B685A1C7B681A6000BF1437BD4645
:102550005DF8047B704780B485B000AF78607B681D
:102560001B69FB607B685B687A6892689A607B682D
:102570009B687A6852685A60FB685B687A689A421E
:1025800003D17B689A68FB685A607B6800221A61F5
:10259000FB681B685A1EFB681A60FB681B681846BC
:1025A0001437BD465DF8047B7047000080B485B0E9
:1025B00000AFF860B9607A60FB68043BFB60FB68C1
:1025C0004FF080721A60FB68043BFB60BB6823F02D
:1025D0000102FB681A60FB68043BFB600C4AFB6865
:1025E0001A60FB68143BFB607A68FB681A60FB6842
:1025F000043BFB60FB686FF002021A60FB68203B43
:10260000FB60FB6818461437BD465DF8047B7047D5
:102610001526000880B485B000AF00237B60124B04
:102620001B68B3F1FF3F0AD04FF0500383F31188CA
:10263000BFF36F8FBFF34F8FFB6000BFFEE74FF01C
:10264000500383F31188BFF36F8FBFF34F8FBB60CD
:1026500000BF00BF7B68002BFCD000BF00BF143759
:10266000BD465DF8047B7047580000200000000064
:10267000074B19680868B0E8F04F80F30988BFF38A
:102680006F8F4FF0000080F311887047AFF3008028
:10269000EC3D002000BF00BF08480068006880F3E0
:1026A00008884FF0000080F3148862B661B6BFF36B
:1026B0004F8FBFF36F8F00DF00BF00BF08ED00E05A
:1026C00080B586B000AF464B1B68464A93420AD19C
:1026D0004FF0500383F31188BFF36F8FBFF34F8F19
:1026E0003B6100BFFEE73E4B1B683F4A93420AD165
:1026F0004FF0500383F31188BFF36F8FBFF34F8FF9
:10270000FB6000BFFEE7394B7B617B691B78DBB266
:102710007B607B69FF221A707B691B78DBB2FB70E0
:10272000FB78DBB203F05003DAB2314B1A70314B55
:1027300007221A6009E02F4B1B68013B2D4A1360EA
:10274000FB78DBB25B00DBB2FB70FB78DBB203F043
:102750008003802BEFD0274B1B68C3F10703042BAA
:102760000AD04FF0500383F31188BFF36F8FBFF38C
:102770004F8FBB6000BFFEE71E4B1B681B021D4A4C
:1027800013601C4B1B6803F4E0631A4A13607B68F8
:10279000DAB27B691A70184B1B68174A43F470034E
:1027A0001360154B1B68144A43F07043136000F02C
:1027B000DDF8124B00221A6000F0FCF8104B1B6889
:1027C0000F4A43F040431360FFF766FF00F0BEFE80
:1027D000FFF720FF002318461837BD4680BD00BF15
:1027E00000ED00E071C20F4170C20F4100E400E053
:1027F000C4010020C801002020ED00E058000020A6
:1028000034EF00E080B483B000AF4FF0500383F3A7
:102810001188BFF36F8FBFF34F8F7B6000BF0F4BEB
:102820001B6801330D4A13600C4B1B68012B0FD141
:102830000B4B1B68DBB2002B0AD04FF0500383F325
:102840001188BFF36F8FBFF34F8F3B6000BFFEE770
:1028500000BF0C37BD465DF8047B70475800002070
:1028600004ED00E080B483B000AF124B1B68002B76
:102870000AD14FF0500383F31188BFF36F8FBFF37A
:102880004F8F7B6000BFFEE70A4B1B68013B094A84
:102890001360084B1B68002B05D100233B603B688D
:1028A00083F3118800BF00BF0C37BD465DF8047B81
:1028B000704700BF5800002000000000000000002A
:1028C000EFF30980BFF36F8F154B1A681EF0100FDE
:1028D00008BF20ED108A20E9F04F10602DE90900B3
:1028E0004FF0500080F31188BFF34F8FBFF36F8F0D
:1028F00000F02CFE4FF0000080F3118809BC19682D
:102900000868B0E8F04F1EF0100F08BFB0EC108A56
:1029100080F30988BFF36F8F704700BFAFF300806B
:10292000EC3D002000BF00BF80B582B000AF4FF08B
:10293000500383F31188BFF36F8FBFF34F8F7B601A
:1029400000BF00F04BFD0346002B03D0064B4FF0B9
:1029500080521A6000233B603B6883F3118800BFFC
:1029600000BF0837BD4680BD04ED00E080B400AF75
:102970000B4B00221A600B4B00221A600A4B1B689B
:102980000A4AA2FB03239B09094A013B1360044B3B
:1029900007221A6000BFBD465DF8047B704700BF88
:1029A00010E000E018E000E05C000020D34D621071
:1029B00014E000E0DFF80C00016841F470010160F0
:1029C000704700BF88ED00E080B58AB000AF786046
:1029D0000023FB6100F058FC5B4B1B68002B01D10E
:1029E00000F020F9594B1A687B681340002B40F027
:1029F00093807B68002B1DD008227B6813447B608A
:102A00007B6803F00703002B14D07B6823F00703D7
:102A100008337B607B6803F00703002B0AD04FF07C
:102A2000500383F31188BFF36F8FBFF34F8F7B6128
:102A300000BFFEE77B68002B6ED0454B1B687A68B1
:102A40009A4269D8434B3B62424B1B687B6204E06D
:102A50007B6A3B627B6A1B687B627B6A5B687A6825
:102A60009A4203D97B6A1B68002BF1D1364B1B6855
:102A70007A6A9A4250D03B6A1B6808221344FB6171
:102A80007B6A1A683B6A1A607B6A5A687B68D21A4A
:102A900008235B009A421FD97A6A7B681344BB61A2
:102AA000BB6903F00703002B0AD04FF0500383F3F8
:102AB0001188BFF36F8FBFF34F8F3B6100BFFEE7FD
:102AC0007B6A5A687B68D21ABB695A607B6A7A68EB
:102AD0005A60B86900F008F91D4B1A687B6A5B6898
:102AE000D31A1B4A13601A4B1A681B4B1B689A4275
:102AF00003D2174B1B68184A13607B6A5A68134B42
:102B00001B681A437B6A5A607B6A00221A60134B67
:102B10001B680133114A136000F0C4FBFB6903F02A
:102B20000703002B0AD04FF0500383F31188BFF343
:102B30006F8FBFF34F8FFB6000BFFEE7FB69184646
:102B40002837BD4680BD00BFD43D0020E83D0020B1
:102B5000D83D0020CC3D0020DC3D0020E03D0020A1
:102B600080B586B000AF78607B687B617B68002BA6
:102B70004DD008235B427A6913447B617B693B61DA
:102B80003B695A68244B1B681340002B0AD14FF055
:102B9000500383F31188BFF36F8FBFF34F8FFB6038
:102BA00000BFFEE73B691B68002B0AD04FF05003C3
:102BB00083F31188BFF36F8FBFF34F8FBB6000BFEC
:102BC000FEE73B695A68144B1B681340002B1ED06C
:102BD0003B691B68002B1AD13B695A680E4B1B6876
:102BE000DB431A403B695A6000F04EFB3B695A6870
:102BF0000A4B1B681344094A1360386900F074F8E3
:102C0000074B1B680133064A136000F04BFB00BF03
:102C10001837BD4680BD00BFE83D0020D83D0020EC
:102C2000E43D002080B485B000AF4FF47053BB602A
:102C3000274BFB60FB6803F00703002B0CD0FB68FD
:102C40000733FB60FB6823F00703FB60BA68FB688F
:102C5000D31A1F4A1344BB60FB687B601D4A7B6824
:102C600013601C4B00225A607B68BA681344FB60F7
:102C70000822FB689B1AFB60FB6823F00703FB60DC
:102C8000FB68154A1360144B1B6800225A60124BF4
:102C90001B6800221A607B683B603B68FA68D21AA6
:102CA0003B685A600C4B1A683B681A603B685B686B
:102CB0000A4A13603B685B68094A1360094B4FF08E
:102CC00000421A6000BF1437BD465DF8047B7047B0
:102CD000CC010020CC3D0020D43D0020DC3D002074
:102CE000D83D0020E83D002080B485B000AF78607A
:102CF000284BFB6002E0FB681B68FB60FB681B68FD
:102D00007A689A42F7D8FB68BB60FB685B68BA6870
:102D100013447A689A4208D1FB685A687B685B68FA
:102D20001A44FB685A60FB687B607B68BB607B6809
:102D30005B68BA681A44FB681B689A4218D1FB6842
:102D40001A68154B1B689A420DD07B685A68FB685D
:102D50001B685B681A447B685A60FB681B681A68CA
:102D60007B681A6008E00C4B1A687B681A6003E005
:102D7000FB681A687B681A60FA687B689A4202D01E
:102D8000FB687A681A6000BF1437BD465DF8047BA3
:102D9000704700BFCC3D0020D43D002080B58EB0F0
:102DA00004AFF860B9607A603B607B6B002B0AD19E
:102DB0004FF0500383F31188BFF36F8FBFF34F8F32
:102DC0003B6200BFFEE7BB6B002B0AD14FF0500304
:102DD00083F31188BFF36F8FBFF34F8FFB6100BF89
:102DE000FEE74FF4BC733B613B69B3F5BC7F0AD08F
:102DF0004FF0500383F31188BFF36F8FBFF34F8FF2
:102E0000BB6100BFFEE73B69BB6B002B1ED07B6B39
:102E1000002B1BD0BB6B7B627B6A7A6B1A637B6A6D
:102E2000022283F87521002303937B6A029307F142
:102E3000140301933B6B00933B687A68B968F868A8
:102E400000F052F8786A00F017F901E000237B6186
:102E50007B6918462837BD4680BD80B58CB004AF6D
:102E6000F860B9603B601346FB80FB889B00184606
:102E7000FFF7AAFD78617B69002B0FD04FF4BC707F
:102E8000FFF7A2FDF861FB69002B03D0FB697A69AB
:102E90001A6305E07869FFF763FE01E00023FB6138
:102EA000FB69002B17D0FB69002283F87521FA8893
:102EB00000230393FB690293FB6A0193BB6A0093AF
:102EC0003B68B968F86800F00FF8F86900F0D4F8CA
:102ED0000123BB6102E04FF0FF33BB61BB691846C1
:102EE0002037BD4680BD000080B588B000AFF860D7
:102EF000B9607A603B603B6B1A6B7B6803F180437F
:102F0000013B9B001344BB61BB6923F00703BB611A
:102F1000BB6903F00703002B0AD04FF0500383F383
:102F20001188BFF36F8FBFF34F8F7B6100BFFEE748
:102F3000BB68002B1FD00023FB6112E0BA68FB695D
:102F4000134419783A6BFB69134434330A461A70F8
:102F5000BA68FB6913441B78002B06D0FB69013368
:102F6000FB61FB690F2BE9D900E000BF3B6B00223E
:102F700083F8432003E03B6B002283F83420BB6AD4
:102F8000062B01D90623BB623B6BBA6ADA623B6B44
:102F9000BA6A5A643B6B00229A643B6B043318464E
:102FA000FFF76FFA3B6B18331846FFF76AFA3B6B73
:102FB0003A6B1A61BB6AC3F107023B6B9A613B6BC8
:102FC0003A6B5A623B6B0022C3F870213B6B0022C4
:102FD00083F874213B6B50334FF4907200211846F4
:102FE000FDF7BAFA3B6B214A5A653B6B204A9A655A
:102FF0003B6B204ADA65396B4FF001024FF000035A
:10300000C1E93A233B6B43F20E32A3F8F0203B6B4D
:103010004AF6CD32A3F8F2203B6B41F23422A3F8FA
:10302000F4203B6B4EF26D62A3F8F6203B6B4DF63D
:10303000EC62A3F8F8203B6B0522A3F8FA203B6B67
:103040000B22A3F8FC203A68F968B869FFF7AEFADA
:1030500002463B6B1A60FB6A002B02D0FB6A3A6B9C
:103060001A6000BF2037BD4680BD00BF7C00002035
:10307000E40000204C01002080B582B000AF7860F1
:10308000FFF7C0FB2A4B1B680133294A1360294B09
:103090001B68002B09D1274A7B681360244B1B68EF
:1030A000012B10D100F0CCFA0DE0234B1B68002B54
:1030B00009D1204B1B68DA6A7B68DB6A9A4202D826
:1030C0001C4A7B6813601D4B1B6801331B4A13604D
:1030D0007B68DB6A01229A40194B1B681343184A2C
:1030E00013607B68DA6A13469B0013449B00154A01
:1030F0001A447B68043319461046FFF7CFF9FFF7EF
:10310000B1FB0D4B1B68002B0ED00A4B1B68DA6A13
:103110007B68DB6A9A4207D20B4B4FF080521A60F1
:10312000BFF34F8FBFF36F8F00BF0837BD4680BD21
:10313000EC3E0020EC3D0020F83E0020083F00203F
:10314000F43E0020F03D002004ED00E080B584B0A6
:1031500000AF78600023FB607B68002B17D0134B17
:103160001B68002B0AD04FF0500383F31188BFF384
:103170006F8FBFF34F8FBB6000BFFEE700F084F896
:103180000021786800F01EFB00F08CF8F860FB6806
:10319000002B07D1064B4FF080521A60BFF34F8FC0
:1031A000BFF36F8F00BF1037BD4680BD143F0020B6
:1031B00004ED00E080B58AB004AF0023BB600023BB
:1031C0007B603A46391D07F10803184600F0F6FB0C
:1031D00039687B68BA680292019300230093002348
:1031E0000A4621492148FFF7D9FD0346204A1360CA
:1031F0001F4B1B68002B02D001237B6101E00023E1
:103200007B617B69012B1BD14FF0500383F3118845
:10321000BFF36F8FBFF34F8F3B6100BF154B1B6830
:103220005033154A1360154B4FF0FF321A60144BA0
:1032300001221A60134B00221A60FFF741FA0EE0D8
:103240007B69B3F1FF3F0AD14FF0500383F311883C
:10325000BFF36F8FBFF34F8FFB6000BFFEE700BF70
:103260001837BD4680BD00BFC43F000811360008B6
:10327000103F0020EC3D0020000000200C3F00200B
:10328000F83E0020F03E002080B400AF044B1B68E5
:103290000133034A136000BFBD465DF8047B7047ED
:1032A000143F002080B584B000AF0023FB600023F2
:1032B000BB60414B1B68002B0AD14FF0500383F3D6
:1032C0001188BFF36F8FBFF34F8F3B6000BFFEE7E6
:1032D000FFF798FA384B1B68013B374A1360364BAF
:1032E0001B68002B61D1354B1B68002B5DD02EE095
:1032F000334BDB68DB68FB60FB6818331846FFF76D
:103300002AF9FB6804331846FFF725F9FB68DB6AE6
:1033100001229A402B4B1B6813432A4A1360FB6817
:10332000DA6A13469B0013449B00274A1A44FB6841
:10333000043319461046FFF7B1F8FB68DA6A234BED
:103340001B68DB6A9A4202D3214B01221A601C4B94
:103350001B68002BCCD1FB68002B01D000F012FAC7
:103360001C4B1B687B607B68002B10D000F036F88C
:103370000346002B02D0164B01221A607B68013BEA
:103380007B607B68002BF1D1124B00221A60104B3E
:103390001B68002B09D00123BB600F4B4FF08052FC
:1033A0001A60BFF34F8FBFF36F8FFFF75BFABB68F5
:1033B00018461037BD4680BD143F0020EC3E00206B
:1033C000AC3E0020F43E0020F03D0020EC3D00200B
:1033D000003F0020FC3E002004ED00E080B586B0F8
:1033E00000AF00237B614E4B1B68002B40F08E80AA
:1033F0004C4B1B6801333B614A4A3B6913603B6994
:10340000002B20D1484B1B681B68002B0AD04FF0C3
:10341000500383F31188BFF36F8FBFF34F8F3B606F
:1034200000BFFEE7404B1B68FB60404B1B683E4AF9
:1034300013603E4AFB6813603D4B1B6801333C4AF6
:10344000136000F09FF93B4B1B683A699A4248D3DE
:10345000354B1B681B68002B04D1364B4FF0FF32F5
:103460001A603EE0304B1B68DB68DB68BB60BB6802
:103470005B687B603A697B689A4203D22D4A7B681D
:1034800013602EE0BB6804331846FFF764F8BB688E
:103490009B6A002B04D0BB6818331846FFF75BF813
:1034A000BB68DB6A01229A40234B1B681343224A04
:1034B0001360BB68DA6A13469B0013449B001F4AE3
:1034C0001A44BB68043319461046FEF7E7FFBB6891
:1034D000DA6A1B4B1B68DB6A9A42B9D301237B6112
:1034E000B6E7174B1B68DA6A144913469B0013446E
:1034F0009B000B441B68012B01D901237B61114BFD
:103500001B68002B07D001237B6104E00E4B1B6876
:1035100001330D4A13607B6918461837BD4680BDDC
:10352000143F0020F03E0020A43E0020A83E0020D2
:10353000043F00200C3F0020F43E0020F03D00201E
:10354000EC3D0020003F0020FC3E002080B487B00E
:1035500000AF294B1B68002B03D0284B01221A60B7
:1035600044E0264B00221A60254B1B68FB60FB6879
:10357000B3FA83F3FB72FB7AC3F11F037B6121492A
:103580007A6913469B0013449B000B441B68002B75
:103590000AD14FF0500383F31188BFF36F8FBFF34D
:1035A0004F8F7B6000BFFEE77A6913469B00134490
:1035B0009B00144A13443B613B695B685A683B6952
:1035C0005A603B695A683B6908339A4204D13B69A7
:1035D0005B685A683B695A603B695B68DB680A4A0A
:1035E0001360094B1B685033084A136000BF1C3737
:1035F000BD465DF8047B7047143F0020003F00206B
:10360000F43E0020F03D0020EC3D002000000020B2
:1036100080B582B000AF786000F052F8064B1B68AE
:10362000012BF9D9054B4FF080521A60BFF34F8F31
:10363000BFF36F8FF0E700BFF03D002004ED00E026
:1036400080B582B000AF00237B600CE07A6813463F
:103650009B0013449B00124A13441846FEF7F1FEE8
:103660007B6801337B607B68062BEFD90D48FEF742
:10367000E8FE0D48FEF7E5FE0C48FEF7E2FE0C48BA
:10368000FEF7DFFE0B48FEF7DCFE0B4B054A1A6027
:103690000A4B054A1A6000BF0837BD4680BD00BF0F
:1036A000F03D00207C3E0020903E0020AC3E0020FB
:1036B000C03E0020D83E0020A43E0020A83E0020AE
:1036C00080B582B000AF19E0FFF79CF8104BDB68C3
:1036D000DB687B607B6804331846FEF73CFF0D4BCC
:1036E0001B68013B0B4A13600B4B1B68013B0A4AEA
:1036F0001360FFF7B7F8786800F010F8064B1B6806
:10370000002BE1D100BF00BF0837BD4680BD00BF20
:10371000C03E0020EC3E0020D43E002080B584B0A6
:1037200000AF78607B6850331846FCF7C5FF7B68B4
:1037300093F87531002B08D17B681B6B1846FFF797
:103740000FFA7868FFF70CFA18E07B6893F8753188
:10375000012B03D17868FFF703FA0FE07B6893F839
:103760007531022B0AD04FF0500383F31188BFF359
:103770006F8FBFF34F8FFB6000BFFEE700BF1037B6
:10378000BD4680BD80B483B000AF0C4B1B681B6886
:10379000002B04D10A4B4FF0FF321A6008E0074BB0
:1037A0001B68DB68DB687B607B685B68044A1360CE
:1037B00000BF0C37BD465DF8047B7047A43E002077
:1037C0000C3F002080B584B000AF78603960294B91
:1037D0001B68FB60284B1B6804331846FEF7BBFED2
:1037E0000346002B0BD1244B1B68DB6A012202FA33
:1037F00003F3DA43214B1B681340204A13607B68B4
:10380000B3F1FF3F0AD13B68002B07D01A4B1B686E
:10381000043319461A48FEF741FE26E0FA687B6831
:103820001344BB60144B1B68BA685A60BA68FB68E3
:103830009A4209D2134B1A680F4B1B68043319467E
:103840001046FEF74FFE10E00F4B1A680A4B1B683C
:10385000043319461046FEF745FE0C4B1B68BA6848
:103860009A4202D2094ABB68136000BF1037BD46B6
:1038700080BD00BFF03E0020EC3D0020F43E002063
:10388000D83E0020A83E0020A43E00200C3F00208F
:1038900080B584B000AF3B4600221A605A609A603F
:1038A000DA60214B214A1A601F4B4FF480325A6074
:1038B0001D4B00229A601C4B00221A611A4B0022F9
:1038C0001A76194B002283F82020174B0022DA6267
:1038D000154B174A9A62144B0022DA60124B0122F0
:1038E000DA61114B002283F830200F4B01225A611C
:1038F0000D48FCF791FF0346002B01D000F04CFA75
:1039000000233B6001237B600023BB603B461946DC
:103910000548FCF7C5FF0346002B01D000F03CFA38
:1039200000BF1037BD4680BD183F00200020014079
:103930000100000F80B58AB000AF786007F1140372
:1039400000221A605A609A60DA601A617B681B680C
:10395000174A934227D100233B61164B5B6C154AF3
:1039600043F480735364134B5B6C03F480733B61CB
:103970003B690023FB600F4B1B6B0E4A43F00103B6
:1039800013630C4B1B6B03F00103FB60FB6801230B
:103990007B610323BB610023FB6107F1140319461C
:1039A0000548FDF77DFA00BF2837BD4680BD00BF42
:1039B00000200140003802400000024080B485B081
:1039C00000AFF860B9607A60FB68074A1A60BB68AC
:1039D000064A1A607B6880221A6000BF1437BD4611
:1039E0005DF8047B704700BF703F0020E840002076
:1039F000B0B596B000AF1D4B07F13C041D460FCD8E
:103A00000FC495E8070084E8070007F13C03002194
:103A10001846FEF7B6FC0346154A1360154B07F12E
:103A200020041D460FCD0FC495E8070084E8070069
:103A300007F1200300211846FEF7A3FC03460E4AB7
:103A400013600E4B3C1D1D460FCD0FC495E80700BB
:103A500084E807003B1D00211846FEF792FC034650
:103A6000074A136000BF5837BD46B0BDD83F0008B5
:103A7000603F002000400008643F0020284000080C
:103A8000683F002080B582B000AF78600120FEF76B
:103A9000C4FCFBE780B582B000AF78600120FEF780
:103AA000BCFCFBE780B582B000AF78600120FEF778
:103AB000B4FCFBE780B58AB000AF07F11403002225
:103AC0001A605A609A60DA601A6100233B612E4BDB
:103AD0001B6B2D4A43F0800313632B4B1B6B03F0CE
:103AE00080033B613B690023FB60274B1B6B264A2D
:103AF00043F001031363244B1B6B03F00103FB60D2
:103B0000FB680023BB60204B1B6B1F4A43F008037C
:103B100013631D4B1B6B03F00803BB60BB680023E2
:103B20007B60194B1B6B184A43F002031363164B5F
:103B30001B6B03F002037B607B6800224FF4304173
:103B40001248FDF749FB4FF430437B610123BB6111
:103B50000023FB6100233B6207F1140319460B4865
:103B6000FDF79EF94FF480437B610023BB61002386
:103B7000FB6107F1140319460448FDF791F900BFF2
:103B80002837BD4680BD00BF00380240000C02400F
:103B900080B500AF124B134A1A60114B124A5A609B
:103BA0000F4B00229A600E4B0022DA600C4B4FF450
:103BB00080421A610A4B00225A61094B00229A6125
:103BC000074B0022DA61064B00221A620448FDF717
:103BD0001DFB0346002B01D000F0DEF800BF80BDC6
:103BE000E842002000540040A086010080B58AB061
:103BF00000AF786007F1140300221A605A609A60DF
:103C0000DA601A617B681B68194A93422BD1002342
:103C10003B61184B1B6B174A43F002031363154BB0
:103C20001B6B03F002033B613B69C0237B611223E2
:103C3000BB610023FB6103233B6204237B6207F12A
:103C4000140319460C48FDF72BF90023FB60094BC0
:103C50001B6C084A43F400131364064B1B6C03F4FB
:103C60000013FB60FB6800BF2837BD4680BD00BF66
:103C700000540040003802400004024080B500AF0C
:103C8000FCF788FD00F00CF8FFF714FFFFF780FF4A
:103C9000FFF7FEFDFFF7ACFEFEF76CFBFEE7000052
:103CA00080B594B000AF07F1200330220021184600
:103CB000FCF752FC07F10C0300221A605A609A606C
:103CC000DA601A610023BB60284B1B6C274A43F063
:103CD00080531364254B1B6C03F08053BB60BB689F
:103CE00000237B60224B1B68214A43F4804313600E
:103CF0001F4B1B6803F480437B607B6802233B629D
:103D00000123FB6210233B630223BB630023FB639D
:103D100008233B64A8237B640223BB640723FB6462
:103D200007F120031846FDF7B5FB0346002B01D031
:103D300000F032F80F23FB6002233B6100237B611C
:103D40004FF4A053BB614FF48053FB6107F10C03A8
:103D500005211846FDF716FE0346002B01D000F0A2
:103D60001BF800BF5037BD4680BD00BF0038024081
:103D70000070004080B582B000AF78607B681B683F
:103D8000044A934201D1FCF727FD00BF0837BD4626
:103D900080BD00BF0008004080B400AF72B600BF15
:103DA000FEE7000080B582B000AF00237B60124BBD
:103DB0005B6C114A43F4804353640F4B5B6C03F418
:103DC00080437B607B6800233B600B4B1B6C0A4A83
:103DD00043F080531364084B1B6C03F080533B602B
:103DE0003B6800220F216FF00100FDF72FF800BFA4
:103DF0000837BD4680BD00BF0038024080B58EB098
:103E000000AF78600023FB620023BB620023FB60ED
:103E1000334B1B6C324A43F004031364304B1B6C6E
:103E200003F00403FB60FB6807F1100207F11403C1
:103E300011461846FDF7B2FF3B6AFB62FB6A002B96
:103E400003D1FDF797FF786304E0FDF793FF034686
:103E50005B007B637B6B234AA2FB03239B0C013B30
:103E6000BB62214B214A1A601F4B40F2E732DA60F5
:103E70001D4ABB6A53601C4B00221A611A4B002278
:103E80009A60194B00229A611748FDF7B9FF034663
:103E900087F8333097F83330002B1BD11248FEF7E8
:103EA00009F8034687F8333097F83330002B11D1E7
:103EB0001E20FCF7E7FF7B680F2B08D800227968EB
:103EC0001E20FCF7C3FF0A4A7B68136002E001234F
:103ED00087F8333097F8333018463837BD4680BD01
:103EE0000038024083DE1B433C43002000080040B2
:103EF0005000002080B400AFFEE780B400AFFEE7C2
:103F000080B400AFFEE780B400AFFEE780B400AF3E
:103F1000FEE780B400AF00BFBD465DF8047B70478C
:103F200080B500AF0248FEF735F800BF80BD00BF86
:103F30003C43002080B400AF064BD3F88830054ADC
:103F400043F47003C2F8883000BFBD465DF8047BBF
:103F5000704700BF00ED00E0DFF834D0FFF7EAFF64
:103F60000C480D490D4A002302E0D458C4500433D4
:103F7000C4188C42F9D30A4A0A4C002301E01360AA
:103F80000432A242FBD3FCF7BFFAFFF777FE70477B
:103F90000000022000000020600000206C400008AB
:103FA0006000002084430020FEE70000F8B500BF59
:103FB000F8BC08BC9E467047F8B500BFF8BC08BC0A
:043FC0009E46704762
:103FC40049444C450000000064656661756C745496
:103FD40061736B00CC3F0008853A000800000000C4
:103FE400000000008000000000000000000000004D
:103FF4006D795461736B303200000000F43F0008A7
:10400400953A0008FEFF0000000000008000000058
:1040140000000000000000006D795461736B3033C0
:10402400000000001C400008A53A0008FEFF000044
:1040340000000000800000000000000000000000FC
:104044000000000000000000010203040607080944
:0840540000000000010203045A
:08405C00ECC1FF7F0100000030
:04406400F901000856
:04406800D10100087A
:10406C0004000020000000007C000020E400002080
:10407C004C010020000000000000000000000000C7
:10408C000000000000000000000000000000000024
:10409C000000000000000000000000000000000014
:1040AC000000000000000000000000000000000004
:1040BC001000000001000000AAAAAAAA0024F40023
:0400000508003F5957
:00000001FF
